:100000000C9463000C948B000C948B000C948B006C
:100010000C948B000C948B000C948B000C94DB02E2
:100020000C948B000C948B000C948B000C948B0024
:100030000C948B000C948B000C948B000C948B0014
:100040000C9491020C948B000C94A5030C947F03E8
:100050000C948B000C948B000C948B000C948B00F4
:100060000C948B000C948B000200000000250028EB
:10007000002B0000000000240027002A00000000E0
:1000800000230026002900040404040404040402DC
:100090000202020202030303030303010204081025
:1000A00020408001020408102001020408102000F2
:1000B0000000080002010000030407000000000027
:1000C00000000000440711241FBECFEFD8E0DEBFC0
:1000D000CDBF11E0A0E0B1E0E2E9FFE002C0059091
:1000E0000D92AC38B107D9F722E0ACE8B1E001C01D
:1000F0001D92AF34B207E1F710E0C3E6D0E004C0D0
:100100002197FE010E94C107C236D107C9F70E949C
:10011000D7030C94C7070C940000833081F028F4B7
:10012000813099F08230A9F008958730A9F08830A5
:10013000C9F08430B1F4809180008F7D03C080913C
:1001400080008F7780938000089584B58F7784BD79
:10015000089584B58F7DFBCF8091B0008F77809319
:10016000B00008958091B0008F7DF9CFCF93DF93D9
:10017000282F30E0F901E155FF4F8491F901E55650
:10018000FF4FD491F901E957FF4FC491CC23A1F05F
:1001900081110E948D00EC2FF0E0EE0FFF1FE3585D
:1001A000FF4FA591B491EC91ED2381E090E009F42B
:1001B00080E0DF91CF91089580E090E0FACFCF9377
:1001C000DF9390E0FC01E556FF4F249189579F4F44
:1001D000FC0184918823D1F090E0880F991FFC01E5
:1001E000ED58FF4FA591B491FC01E759FF4FC59120
:1001F000D491623071F49FB7F8943C91822F80952E
:1002000083238C93E8812E2B28839FBFDF91CF918E
:1002100008958FB7F894EC912E2B2C938FBFF6CFC7
:100220003FB7F8948091AE019091AF01A091B001D9
:10023000B091B10126B5A89B05C02F3F19F00196DA
:10024000A11DB11D3FBFBA2FA92F982F8827BC0130
:10025000CD01620F711D811D911D42E0660F771F58
:10026000881F991F4A95D1F708958F929F92AF9258
:10027000BF92CF92DF92EF92FF924B015C010E94FE
:1002800010016B017C010E9410016C197D098E091F
:100290009F09683E734081059105A8F321E0821A09
:1002A0009108A108B10888EEC80E83E0D81EE11CB1
:1002B000F11C81149104A104B10429F7FF90EF907F
:1002C000DF90CF90BF90AF909F908F900895AF92A6
:1002D000BF92CF92DF92EF92FF920F931F93CF9333
:1002E000DF936C017B018B01040F151FEB015E0195
:1002F000AE18BF08C017D10759F06991D601ED912A
:10030000FC910190F081E02DC6010995892B79F7C8
:10031000C501DF91CF911F910F91FF90EF90DF907A
:10032000CF90BF90AF900895FC01538D448D252F41
:1003300030E0842F90E0821B930B541710F0CF967F
:10034000089501970895FC01918D828D981761F0B1
:10035000A28DAE0FBF2FB11D5D968C91928D9F5FC8
:100360009F73928F90E008958FEF9FEF0895FC01A7
:10037000918D828D981731F0828DE80FF11D858D5A
:1003800090E008958FEF9FEF0895FC01918D228DED
:10039000892F90E0805C9F4F821B91098F73992772
:1003A000089582EB91E00E94C50121E0892B09F4B8
:1003B00020E0822F089580E090E0892B29F00E94B0
:1003C000D10181110C9400000895FC01A48DA80FA7
:1003D000B92FB11DA35ABF4F2C91848D90E0019687
:1003E0008F739927848FA689B7892C93A089B189A7
:1003F0008C91837080648C93938D848D981306C048
:100400000288F389E02D80818F7D80830895EF92AB
:10041000FF920F931F93CF93DF93EC0181E0888FBE
:100420009B8D8C8D98131AC0E889F989808185FF8E
:1004300015C09FB7F894EE89FF896083E889F98930
:1004400080818370806480839FBF81E090E0DF9132
:10045000CF911F910F91FF90EF900895F62E0B8D85
:1004600010E00F5F1F4F0F731127E02E8C8D8E1140
:100470000CC00FB607FCFACFE889F989808185FFA7
:10048000F5CFCE010E94E501F1CFEB8DEC0FFD2FF2
:10049000F11DE35AFF4FF0829FB7F8940B8FEA8962
:1004A000FB8980818062CFCFCF93DF93EC01888D71
:1004B0008823B9F0AA89BB89E889F9898C9185FDDF
:1004C00003C0808186FD0DC00FB607FCF7CF8C916D
:1004D00085FFF2CF808185FFEDCFCE010E94E5013F
:1004E000E9CFDF91CF910895CF93DF93FC01019085
:1004F0000020E9F73197AF01481B590BBC0182EB93
:1005000091E00E946701EC0142E050E062E271E09C
:1005100082EB91E00E9467018C0F9D1FDF91CF91CC
:1005200008951F920F920FB60F9211242F933F93AD
:100530008F939F93AF93BF938091AA019091AB014A
:10054000A091AC01B091AD013091A90123E0230F3E
:100550002D3758F50196A11DB11D2093A901809357
:10056000AA019093AB01A093AC01B093AD0180912F
:10057000AE019091AF01A091B001B091B10101968F
:10058000A11DB11D8093AE019093AF01A093B00166
:10059000B093B101BF91AF919F918F913F912F91F6
:1005A0000F900FBE0F901F90189526E8230F02960C
:1005B000A11DB11DD2CF1F920F920FB60F92112421
:1005C0002F933F934F935F936F937F938F939F935B
:1005D000AF93BF93CF93DF93EF93FF9380919101FC
:1005E00090919201A0919301B0919401892B8A2B53
:1005F0008B2BE1F190918C01E0918D01F0918E01B6
:100600008081892780838091910190919201A091AE
:100610009301B0919401181619061A061B069CF452
:100620008091910190919201A0919301B0919401D8
:100630000197A109B1098093910190939201A09330
:100640009301B0939401FF91EF91DF91CF91BF910E
:10065000AF919F918F917F916F915F914F913F915A
:100660002F910F900FBE0F901F90189520910601AB
:10067000E8E6F0E0E4918FEF80930601E13041F18C
:1006800020F1E23059F130E0F901E155FF4F84915A
:10069000F901E556FF4FD491F901E957FF4FC49195
:1006A000CC2389F281110E948D00EC2FF0E0EE0F37
:1006B000FF1FE759FF4FA591B4918FB7F894EC91C4
:1006C000D095DE23DC938FBFBECF10926E00DBCFC0
:1006D00080916F008D7F80936F00D5CF80917000E7
:1006E0008D7F8093700081E08093B0008091B10095
:1006F000887F84608093B1001092B300C4CF1F92B2
:100700000F920FB60F9211242F933F934F935F9345
:100710006F937F938F939F93AF93BF93EF93FF93C9
:1007200082EB91E00E94E501FF91EF91BF91AF91C3
:100730009F918F917F916F915F914F913F912F91F9
:100740000F900FBE0F901F9018951F920F920FB62B
:100750000F9211242F938F939F93EF93FF93E09128
:10076000C201F091C3018081E091C801F091C901FB
:1007700082FD1BC090818091CB018F5F8F73209190
:10078000CC01821741F0E091CB01F0E0EE54FE4F36
:10079000958F8093CB01FF91EF919F918F912F9136
:1007A0000F900FBE0F901F9018958081F4CFCF93BC
:1007B000DF9300D000D01F92CDB7DEB7789484B518
:1007C000826084BD84B5816084BD85B5826085BD4D
:1007D00085B5816085BD80916E00816080936E00DB
:1007E00010928100809181008260809381008091CD
:1007F000810081608093810080918000816080937E
:1008000080008091B10084608093B1008091B0003D
:1008100081608093B00080917A00846080937A0038
:1008200080917A00826080937A0080917A00816062
:1008300080937A0080917A00806880937A00109289
:10084000C100E091C201F091C30182E08083E09198
:10085000BE01F091BF011082E091C001F091C10191
:100860008FEC80831092CA01E091C601F091C7011C
:1008700086E08083E091C401F091C50180818061B0
:100880008083E091C401F091C501808188608083FC
:10089000E091C401F091C501808180688083E0917E
:1008A000C401F091C50180818F7D808361E084E087
:1008B0000E94DF0061E085E00E94DF0062E088E0E6
:1008C0000E94DF0062E089E00E94DF0061E083E0D7
:1008D0000E94DF0085E291E00E947402B8E44B2E92
:1008E000B8EE5B2E66246394712C8FB7F894C09099
:1008F000AA01D090AB01E090AC01F090AD018FBFA8
:100900008091A7019091A8019601281B390B2436EC
:10091000310508F445C080E091E09A83898306E0C0
:1009200011E0A981BA81AC908A2D0E94B600B82E40
:10093000E981FA818181B81631F1B182B2826AE02F
:1009400070E080E090E00E9435018A2D0E94B600A0
:10095000B81219C0B11017C0F9E026E031E0AF16A7
:1009600011F024EC30E080919D0190919E01FC01FA
:10097000EE0FFF1FE156FE4F3183208301969093C7
:100980009E0180939D0129813A812D5F3F4F3A83DB
:1009900029830217130729F6D092A801C092A70154
:1009A00080910701882309F4B3C110920701EAE19D
:1009B0002E2EE1E03E2ED1010D911D911D01809161
:1009C0000601833009F07AC0E8E6F0E0F491FD8397
:1009D000F7FD92C161E083E00E94DF00FD81FF230B
:1009E00021F02D81223009F0D3C14801B12CA12C76
:1009F00060E072E18AE790E0A50198010E94930708
:100A000029833A834B835C8369017A0131E0C31AFD
:100A1000D108E108F1084FEFC416D104E104F10454
:100A200009F00CF43DC160E472E48FE090E0A501B0
:100A300098010E94930769017A0181E0C81AD108E0
:100A4000E108F1089D81923009F0AFC082E0AFEF7C
:100A5000CA16D104E104F10409F00CF4F3C060E912
:100A600070ED83E090E0A50198010E949307690171
:100A70007A01B1E0CB1AD108E108F10883E0EFEF89
:100A8000CE16D104E104F10409F00CF4DBC0C3017B
:100A9000B201A50198010E94930769017A0181E0E2
:100AA000C81AD108E108F1089FEFC916D104E10482
:100AB000F10411F00CF0CDC084E0C4C08F3F09F008
:100AC0001BC183E080930601E8E6F0E0F491FD832A
:100AD000FF3F09F411C1F13031F158F0F23009F45F
:100AE00041C0BD81B7FD08C161E083E00E94DF0025
:100AF00078CF14BC15BC84B5826084BD85B5816097
:100B000085BDEAE8F0E08491E82FF0E0EE0FFF1FEA
:100B1000E759FF4F85919491EEE9F0E0849180933D
:100B200090011D8257CF1092800010928100809119
:100B30008100886080938100809181008160809332
:100B40008100EAE8F0E08491E82FF0E0EE0FFF1F6B
:100B5000E759FF4F85919491EEE9F0E084918093FD
:100B60008F0138CF1092B0001092B1008091B00088
:100B700082608093B0008091B10081608093B10069
:100B8000EAE8F0E08491E82FF0E0EE0FFF1FE7596C
:100B9000FF4F8591949190938E0180938D01EEE9A2
:100BA000F0E0849180938C0115CFFFEFCF16D10434
:100BB000E104F10409F00CF4E9C0C301B201A5019C
:100BC00098010E94930769017A0181E0C81AD1084F
:100BD000E108F1089D81992309F44CC1AFEFCA16D1
:100BE000D104E104F10409F00CF466CF62E17AE784
:100BF00080E090E0A50194010E94930769017A01C9
:100C0000E1E0CE1AD108E108F108FD81FF2309F4E3
:100C100016C186E03FEFC316D104E104F10491F060
:100C200088F0C980DA80EB80FC808AE0F594E79454
:100C3000D794C7948A95D1F721E0C21AD108E10868
:100C4000F10887E09091B100987F892B8093B100E3
:100C50002FC064E274EF80E090E0A50194010E944F
:100C6000930769017A01A1E0CA1AD108E108F108E5
:100C700085E0BFEFCB16D104E104F10419F310F3C2
:100C800062E17AE780E090E0A50194010E94930779
:100C900069017A01E1E0CE1AD108E108F108B9CF83
:100CA00081E02D812111CECF95B5987F892B85BD0F
:100CB0009801220F331FA8EEB3E00E94B20728EE7E
:100CC00033E040E050E00E947107ED81E13009F42B
:100CD00091C0E23009F4A0C0E1110EC0C7BC20935E
:100CE000990130939A0140939B0150939C0180910C
:100CF0006E00826080936E006CE474E080E090E0AF
:100D00000E94350122E231E02215330509F053CE6D
:100D10008091A5019091A601009759F120919F0122
:100D20003091A0012630314009F086C02091A10108
:100D30003091A201243C310509F07EC02091A3012D
:100D40003091A4012630314009F076C0843C9105F1
:100D500009F072C088E491E00E94740210929E0132
:100D600010929D01EFE9F1E088E0DF011D928A9584
:100D7000E9F780E090E0892B09F4B7CD0E94D1011A
:100D8000882309F4B2CD0E940000AFCD82E089CF64
:100D9000B12CA12C60E072E18AE790E0A5019801F6
:100DA0000E94930769017A0181E0C81AD108E1081D
:100DB000F108C114D10491E0E906F10464F491E072
:100DC000BD81B13009F074CF80918100887F892B7B
:100DD000809381006DCFC301B201A50198010E94EB
:100DE000930769017A01A1E0CA1AD108E108F10864
:100DF00093E0E6CFD0928900C092880020939501BD
:100E000030939601409397015093980180916F0021
:100E1000826080936F0070CFC092B30020939101E5
:100E2000309392014093930150939401809170000C
:100E300082608093700060CF8BE691E08DCF84E07C
:100E4000FFEFCF16D104E104F10409F008F42CCF30
:100E5000C980DA80EB80FC809AE0F594E794D7941F
:100E6000C7949A95D1F7E1E0CE1AD108E108F108CC
:100E700085E01ACF83E0BFEFCB16D104E104F10483
:100E800009F00CF411CFB2CEE2EBF1E01382128242
:100E900088EE93E0A0E0B0E084839583A683B783D7
:100EA0008CE091E09183808385EC90E09587848746
:100EB00084EC90E09787868780EC90E0918B808B24
:100EC00081EC90E0938B828B82EC90E0958B848B0D
:100ED00086EC90E0978B868B118E128E138E148E7B
:100EE0000895A1E21A2EAA1BBB1BFD010DC0AA1F6B
:100EF000BB1FEE1FFF1FA217B307E407F50720F083
:100F0000A21BB30BE40BF50B661F771F881F991FFD
:100F10001A9469F760957095809590959B01AC0146
:100F2000BD01CF010895052E97FB1EF400940E9489
:100F3000AA0757FD07D00E94710707FC03D04EF4A3
:100F40000C94AA0750954095309521953F4F4F4FEF
:100F50005F4F089590958095709561957F4F8F4F65
:100F60009F4F0895A29FB001B39FC001A39F700D32
:100F7000811D1124911DB29F700D811D1124911DA1
:100F80000895EE0FFF1F0590F491E02D0994F89459
:020F9000FFCF91
:100F9200080101090101FF010000000007026701C9
:100FA20094015402C501A301B7010601C400060160
:100FB200C4000D0A004C6566743A206869676820AF
:100FC200746F6E65207C7C2052696768743A206C6D
:100FD2006F7720746F6E6500436F6E677261747510
:100FE2006C6174696F6E732120596F7520676F741D
:100FF20020697420726967687421004F6F707321D1
:101002002057726F6E672073657175656E63652E0A
:0C1012002054727920616761696E210032
:00000001FF
