:100000000C9462000C948A000C948A000C948A0070
:100010000C948A000C948A000C948A000C948A0038
:100020000C948A000C948A000C948A000C948A0028
:100030000C948A000C948A000C948A000C948A0018
:100040000C94C4020C948A000C9434030C940E0398
:100050000C948A000C948A000C948A000C948A00F8
:100060000C948A000C948A000000000023002600F3
:10007000290000000000240027002A0000000000E2
:10008000250028002B0004040404040404040202D4
:100090000202020203030303030301020408102007
:1000A0004080010204081020010204081020000012
:1000B0000008000201000003040700000000000027
:1000C0000000510411241FBECFEFD8E0DEBFCDBF2A
:1000D00011E0A0E0B1E0ECE0F9E002C005900D9283
:1000E000A231B107D9F721E0A2E1B1E001C01D9230
:1000F000A43CB207E1F710E0C2E6D0E004C02197CB
:10010000FE010E947E04C136D107C9F70E94660332
:100110000C9484040C940000833081F028F4813026
:1001200099F08230A9F008958730A9F08830C9F09D
:100130008430B1F4809180008F7D03C08091800075
:100140008F7780938000089584B58F7784BD08955C
:1001500084B58F7DFBCF8091B0008F778093B00006
:1001600008958091B0008F7DF9CF1F93CF93DF93D7
:10017000282F30E0F901E255FF4F8491F901E6564E
:10018000FF4FD491F901EA57FF4FC491CC23A9F056
:10019000162F81110E948C00EC2FF0E0EE0FFF1F54
:1001A000E458FF4FA591B4918FB7F894EC911111D9
:1001B00008C0D095DE23DC938FBFDF91CF911F91D4
:1001C0000895DE2BF8CFCF93DF9390E0FC01E65645
:1001D000FF4F24918A579F4FFC0184918823D1F0CF
:1001E00090E0880F991FFC01EE58FF4FA591B49144
:1001F000FC01E458FF4FC591D491623071F49FB770
:10020000F8943C91822F809583238C93E8812E2B48
:1002100028839FBFDF91CF9108958FB7F894EC9119
:100220002E2B2C938FBFF6CF3FB7F8948091C0014F
:100230009091C101A091C201B091C30126B5A89BC4
:1002400005C02F3F19F00196A11DB11D3FBFBA2F68
:10025000A92F982F8827BC01CD01620F711D811D28
:10026000911D42E0660F771F881F991F4A95D1F7AD
:1002700008958F929F92AF92BF92CF92DF92EF92AA
:10028000FF920E9414014B015C0184EFC82EDD2413
:10029000D394E12CF12C0E941401681979098A0980
:1002A0009B09683E734081059105A8F321E0C21ABD
:1002B000D108E108F10888EE880E83E0981EA11CA1
:1002C000B11CC114D104E104F10429F7FF90EF90AF
:1002D000DF90CF90BF90AF909F908F900895AF9296
:1002E000BF92CF92DF92EF92FF920F931F93CF9323
:1002F000DF936C017B018B01040F151FEB015E0185
:10030000AE18BF08C017D10759F06991D601ED9119
:10031000FC910190F081E02DC6010995892B79F7B8
:10032000C501DF91CF911F910F91FF90EF90DF906A
:10033000CF90BF90AF900895FC01538D448D252F31
:1003400030E0842F90E0821B930B541710F0CF966F
:10035000089501970895FC01918D828D981761F0A1
:10036000A28DAE0FBF2FB11D5D968C91928D9F5FB8
:100370009F73928F90E008958FEF9FEF0895FC0197
:10038000918D828D981731F0828DE80FF11D858D4A
:1003900090E008958FEF9FEF0895FC01918D228DDD
:1003A000892F90E0805C9F4F821B91098F73992762
:1003B000089582E191E00E94CD0121E0892B09F4AA
:1003C00020E0822F089580E090E0892B29F00E94A0
:1003D000D90181110C9400000895FC01A48DA80F8F
:1003E000B92FB11DA35ABF4F2C91848D90E0019677
:1003F0008F739927848FA689B7892C93A089B18997
:100400008C91837080648C93938D848D981306C037
:100410000288F389E02D80818F7D80830895EF929B
:10042000FF920F931F93CF93DF93EC0181E0888FAE
:100430009B8D8C8D98131AC0E889F989808185FF7E
:1004400015C09FB7F894EE89FF896083E889F98920
:1004500080818370806480839FBF81E090E0DF9122
:10046000CF911F910F91FF90EF900895F62E0B8D75
:1004700010E00F5F1F4F0F731127E02E8C8D8E1130
:100480000CC00FB607FCFACFE889F989808185FF97
:10049000F5CFCE010E94ED01F1CFEB8DEC0FFD2FDA
:1004A000F11DE35AFF4FF0829FB7F8940B8FEA8952
:1004B000FB8980818062CFCFCF93DF93EC01888D61
:1004C0008823B9F0AA89BB89E889F9898C9185FDCF
:1004D00003C0808186FD0DC00FB607FCF7CF8C915D
:1004E00085FFF2CF808185FFEDCFCE010E94ED0127
:1004F000E9CFDF91CF9108950F931F93CF93DF93AF
:10050000EC01FC01E255FF4F8491FE01E656FF4FDE
:100510000491FE01EA57FF4F14911123A1F08111BC
:100520000E948C00E12FF0E0EE0FFF1FE859FF4F13
:10053000A591B491EC91E02381E090E011F490E07A
:1005400080E0892BE1F48091B7019091B801892B6B
:10055000B1F425E030E0289711F424E030E08091F8
:10056000AF019091B001FC01EE0FFF1FEF54FE4F61
:100570003183208301969093B0018093AF01DF9186
:10058000CF911F910F9108951F920F920FB60F9266
:1005900011242F933F938F939F93AF93BF93809199
:1005A000BC019091BD01A091BE01B091BF013091FD
:1005B000BB0123E0230F2D3758F50196A11DB11D76
:1005C0002093BB018093BC019093BD01A093BE0119
:1005D000B093BF018091C0019091C101A091C2016F
:1005E000B091C3010196A11DB11D8093C0019093EC
:1005F000C101A093C201B093C301BF91AF919F917C
:100600008F913F912F910F900FBE0F901F901895D3
:1006100026E8230F0296A11DB11DD2CF1F920F9283
:100620000FB60F9211242F933F934F935F936F93C5
:100630007F938F939F93AF93BF93EF93FF9382E149
:1006400091E00E94ED01FF91EF91BF91AF919F91D9
:100650008F917F916F915F914F913F912F910F906B
:100660000FBE0F901F9018951F920F920FB60F920A
:1006700011242F938F939F93EF93FF93E091220187
:10068000F09123018081E0912801F091290182FD00
:100690001BC0908180912B018F5F8F7320912C0163
:1006A000821741F0E0912B01F0E0EE5EFE4F958F56
:1006B00080932B01FF91EF919F918F912F910F903C
:1006C0000FBE0F901F9018958081F4CF789484B559
:1006D000826084BD84B5816084BD85B5826085BD3E
:1006E00085B5816085BD80916E00816080936E00CC
:1006F00010928100809181008260809381008091BE
:10070000810081608093810080918000816080936E
:1007100080008091B10084608093B1008091B0002E
:1007200081608093B00080917A00846080937A0029
:1007300080917A00826080937A0080917A00816053
:1007400080937A0080917A00806880937A0010927A
:10075000C100E0912201F091230182E08083E091C9
:100760001E01F0911F011082E0912001F091210102
:100770008FEC808310922A01E0912601F0912701ED
:1007800086E08083E0912401F091250180818061E1
:100790008083E0912401F09125018081886080832D
:1007A000E0912401F0912501808180688083E091AF
:1007B0002401F091250180818F7D808361E084E0B8
:1007C0000E94E30061E085E00E94E30062E088E0CF
:1007D0000E94E30062E089E00E94E30081EBC82E02
:1007E00081E0D82E98E0792E20E0E22E20E0F22E53
:1007F0008FB7F8948090BC019090BD01A090BE018D
:10080000B090BF018FBF8091B9019091BA0194015E
:10081000281B390B2436310560F088E090E00E94F7
:100820007C0289E090E00E947C029092BA01809262
:10083000B9018091B7019091B801892B31F1C1EBD9
:10084000D1E010E000E08091AF019091B001081775
:10085000190790F48881229661E00E94B5000E94F9
:100860003901FE01329760E080810E94B5000E944C
:1008700039010F5F1F4FE7CFF601272D11922A95FF
:10088000E9F71092B0011092AF01E114F10409F4FC
:10089000AFCF0E94D901882309F4AACF0E9400009B
:1008A000A7CFE2E1F1E01382128288EE93E0A0E0AC
:1008B000B0E084839583A683B78384E091E091833D
:1008C000808385EC90E09587848784EC90E097871F
:1008D000868780EC90E0918B808B81EC90E0938B0D
:1008E000828B82EC90E0958B848B86EC90E0978BEA
:1008F000868B118E128E138E148E0895EE0FFF1FAD
:0C0900000590F491E02D0994F894FFCFCD
:10090C00000000000F026F019C015C02CD01AB01E5
:02091C00BF0119
:00000001FF
