:100000000C9463000C948B000C948B000C948B006C
:100010000C948B000C948B000C948B000C941303A9
:100020000C948B000C948B000C948B000C948B0024
:100030000C948B000C948B000C948B000C948B0014
:100040000C94C9020C948B000C94DD030C94B70340
:100050000C948B000C948B000C948B000C948B00F4
:100060000C948B000C948B000000000023002600F1
:10007000290000000008000201000003040700003E
:100080000000000000000200000000250028002BF6
:100090000000000000240027002A000404040404D7
:1000A0000404040202020202020303030303030125
:1000B00002040810204080010204081020010204FC
:1000C00008102000500711241FBECFEFD8E0DEBF7C
:1000D000CDBF11E0A0E0B1E0EAEAFFE002C0059088
:1000E0000D92A838B107D9F722E0A8E8B1E001C025
:1000F0001D92AB34B207E1F710E0C3E6D0E004C0D4
:100100002197FE010E94CD07C236D107C9F70E9490
:100110000F040C94D3070C940000833081F028F472
:10012000813099F08230A9F008958730A9F08830A5
:10013000C9F08430B1F4809180008F7D03C080913C
:1001400080008F7780938000089584B58F7784BD79
:10015000089584B58F7DFBCF8091B0008F77809319
:10016000B00008958091B0008F7DF9CFCF93DF93D9
:1001700090E0FC01E155FF4F249185569F4FFC0113
:1001800084918823D1F090E0880F991FFC01EF56ED
:10019000FF4FA591B491FC01E957FF4FC591D49150
:1001A000623071F49FB7F8943C91822F809583233D
:1001B0008C93E8812E2B28839FBFDF91CF910895E8
:1001C0008FB7F894EC912E2B2C938FBFF6CF3FB7BF
:1001D000F8948091AA019091AB01A091AC01B091EB
:1001E000AD0126B5A89B05C02F3F19F00196A11DB2
:1001F000B11D3FBFBA2FA92F982F8827BC01CD0171
:10020000620F711D811D911D42E0660F771F881FCF
:10021000991F4A95D1F70895AF92BF92CF92DF927E
:10022000EF92FF920F931F93CF93DF936C017B01AB
:100230008B01040F151FEB015E01AE18BF08C0173C
:10024000D10759F06991D601ED91FC910190F081AF
:10025000E02DC6010995892B79F7C501DF91CF9172
:100260001F910F91FF90EF90DF90CF90BF90AF90D4
:100270000895FC01538D448D252F30E0842F90E0AC
:10028000821B930B541710F0CF9608950197089591
:10029000FC01918D828D981761F0A28DAE0FBF2F5A
:1002A000B11D5D968C91928D9F5F9F73928F90E0B0
:1002B00008958FEF9FEF0895FC01918D828D98171F
:1002C00031F0828DE80FF11D858D90E008958FEF5C
:1002D0009FEF0895FC01918D228D892F90E0805C25
:1002E0009F4F821B91098F73992708958EEA91E0A1
:1002F0000E946A0121E0892B09F420E0822F0895F1
:1003000080E090E0892B29F00E94760181110C9405
:1003100000000895FC01A48DA80FB92FB11DA35AA8
:10032000BF4F2C91848D90E001968F739927848F15
:10033000A689B7892C93A089B1898C918370806438
:100340008C93938D848D981306C00288F389E02DD9
:1003500080818F7D80830895EF92FF920F931F938A
:10036000CF93DF93EC0181E0888F9B8D8C8D981368
:100370001AC0E889F989808185FF15C09FB7F89474
:10038000EE89FF896083E889F989808183708064C0
:1003900080839FBF81E090E0DF91CF911F910F910B
:1003A000FF90EF900895F62E0B8D10E00F5F1F4F1A
:1003B0000F731127E02E8C8D8E110CC00FB607FC29
:1003C000FACFE889F989808185FFF5CFCE010E94B7
:1003D0008A01F1CFEB8DEC0FFD2FF11DE35AFF4F9A
:1003E000F0829FB7F8940B8FEA89FB898081806245
:1003F000CFCFCF93DF93EC01888D8823B9F0AA8902
:10040000BB89E889F9898C9185FD03C0808186FDCF
:100410000DC00FB607FCF7CF8C9185FFF2CF80811E
:1004200085FFEDCFCE010E948A01E9CFDF91CF9108
:100430000895FC0101900020E9F73197AF01481BB6
:10044000590BBC018EEA91E00C940C01CF93DF9321
:100450000E941902EC018DE191E00E9419028C0FBB
:100460009D1FDF91CF910895CF92DF92EF92FF927F
:100470000F931F93CF93DF93CDB7DEB7A1970FB63E
:10048000F894DEBF0FBECDBF282F30E050E040E033
:1004900019A28E010F5D1F4F8AE0C82ED12CE12CCE
:1004A000F12CCA01B901A70196010E947D07605D88
:1004B000F80162938F01211531054105510589F736
:1004C0003097C9F0CF010E9419028C018DE191E0B3
:1004D0000E941902800F911FA1960FB6F894DEBFFB
:1004E0000FBECDBFDF91CF911F910F91FF90EF9085
:1004F000DF90CF90089510E000E0E8CF0F931F93B6
:10050000CF93DF93EC01FC01EE58FF4F8491FE0185
:10051000E155FF4F0491FE01E556FF4F1491112361
:1005200079F081110E948D00E12FF0E0EE0FFF1FA6
:10053000E859FF4FA591B491EC91E02311E009F443
:1005400010E08091000181131DC0812F0E943402B0
:10055000809100010E94340224EC30E0299711F4CC
:1005600026E031E08091990190919A01FC01EE0F13
:10057000FF1FE556FE4F31832083019690939A0129
:100580008093990110930001DF91CF911F910F91FA
:1005900008951F920F920FB60F9211242F933F933D
:1005A0008F939F93AF93BF938091A6019091A701E2
:1005B000A091A801B091A9013091A50123E0230FDA
:1005C0002D3758F50196A11DB11D2093A5018093EB
:1005D000A6019093A701A093A801B093A9018091CF
:1005E000AA019091AB01A091AC01B091AD0101962F
:1005F000A11DB11D8093AA019093AB01A093AC0102
:10060000B093AD01BF91AF919F918F913F912F9189
:100610000F900FBE0F901F90189526E8230F02969B
:10062000A11DB11DD2CF1F920F920FB60F921124B0
:100630002F933F934F935F936F937F938F939F93EA
:10064000AF93BF93CF93DF93EF93FF9380918D018F
:1006500090918E01A0918F01B0919001892B8A2BEE
:100660008B2BE1F190918801E0918901F0918A0151
:1006700080818927808380918D0190918E01A09146
:100680008F01B0919001181619061A061B069CF4EA
:1006900080918D0190918E01A0918F01B091900178
:1006A0000197A109B10980938D0190938E01A093C8
:1006B0008F01B0939001FF91EF91DF91CF91BF91A6
:1006C000AF919F918F917F916F915F914F913F91EA
:1006D0002F910F900FBE0F901F9018952091010140
:1006E000E6E8F0E0E4918FEF80930101E13041F121
:1006F00020F1E23059F130E0F901EE58FF4F8491DA
:10070000F901E155FF4FD491F901E556FF4FC4912E
:10071000CC2389F281110E948D00EC2FF0E0EE0FC6
:10072000FF1FE957FF4FA591B4918FB7F894EC9153
:10073000D095DE23DC938FBFBECF10926E00DBCF4F
:1007400080916F008D7F80936F00D5CF8091700076
:100750008D7F8093700081E08093B0008091B10024
:10076000887F84608093B1001092B300C4CF1F9241
:100770000F920FB60F9211242F933F934F935F93D5
:100780006F937F938F939F93AF93BF93EF93FF9359
:100790008EEA91E00E948A01FF91EF91BF91AF91A3
:1007A0009F918F917F916F915F914F913F912F9189
:1007B0000F900FBE0F901F9018951F920F920FB6BB
:1007C0000F9211242F938F939F93EF93FF93E091B8
:1007D000BE01F091BF018081E091C401F091C5019B
:1007E00082FD1BC090818091C7018F5F8F73209124
:1007F000C801821741F0E091C701F0E0E255FE4FD9
:10080000958F8093C701FF91EF919F918F912F91C9
:100810000F900FBE0F901F9018958081F4CFCF934B
:10082000DF9300D000D01F92CDB7DEB7789484B5A7
:10083000826084BD84B5816084BD85B5826085BDDC
:1008400085B5816085BD80916E00816080936E006A
:10085000109281008091810082608093810080915C
:10086000810081608093810080918000816080930D
:1008700080008091B10084608093B1008091B000CD
:1008800081608093B00080917A00846080937A00C8
:1008900080917A00826080937A0080917A008160F2
:1008A00080937A0080917A00806880937A00109219
:1008B000C100E091BE01F091BF0182E08083E09130
:1008C000BA01F091BB011082E091BC01F091BD0131
:1008D0008FEC80831092C601E091C201F091C301B8
:1008E00086E08083E091C001F091C1018081806148
:1008F0008083E091C001F091C10180818860808394
:10090000E091C001F091C101808180688083E09115
:10091000C001F091C10180818F7D808361E084E01E
:100920000E94B60061E085E00E94B60062E088E0C7
:100930000E94B60062E089E00E94B60061E083E0B8
:100940000E94B60080E291E00E942602F8E44F2E59
:10095000F8EE5F2E66246394712C8FB7F894C090E4
:10096000A601D090A701E090A801F090A9018FBF47
:100970008091A3019091A4019601281B390B243684
:10098000310560F088E090E00E947E0289E090E00E
:100990000E947E02D092A401C092A3018091020124
:1009A000882309F4E6C110920201E5E12E2EE1E070
:1009B0003E2ED1010D911D911D01809101018330C9
:1009C00009F0BFC0E6E8F0E0F491FD83F7FDA6C1B1
:1009D00061E083E00E94B600FD81FF2321F02D81BC
:1009E000223009F006C24801B12CA12C60E072E16E
:1009F0008AE790E0A50198010E949F0729833A8326
:100A00004B835C8369017A0131E0C31AD108E108A4
:100A1000F1084FEFC416D104E104F10409F00CF41D
:100A200051C160E472E48FE090E0A50198010E945A
:100A30009F0769017A0181E0C81AD108E108F1082D
:100A40009D81923009F0F4C082E0AFEFCA16D10464
:100A5000E104F10409F00CF46DC060E970ED83E08D
:100A600090E0A50198010E949F0769017A01B1E019
:100A7000CB1AD108E108F10883E0EFEFCE16D104DC
:100A8000E104F10409F00CF455C0C301B201A50161
:100A900098010E949F0769017A0181E0C81AD10874
:100AA000E108F10884E09FEFC916D104E104F104E4
:100AB00009F00CF43FC064E274EF80E090E0A5011F
:100AC00094010E949F0769017A01A1E0CA1AD10826
:100AD000E108F10885E0FFEFCF16D104E104F1044D
:100AE00049F140F162E17AE780E090E0A5019401EC
:100AF0000E949F0769017A01A1E0CA1AD108E108A2
:100B0000F10886E0BFEFCB16D104E104F10491F0C7
:100B100088F0C980DA80EB80FC809AE0F594E79455
:100B2000D794C7949A95D1F7E1E0CE1AD108E1089D
:100B3000F10887E09091B100987F892B8093B100F4
:100B4000C9C08F3F09F0EAC083E080930101E6E865
:100B5000F0E0F491FD83FF3F09F4E0C0F13031F1A2
:100B600058F0F23009F441C0BD81B7FDD7C061E053
:100B700083E00E94B60033CF14BC15BC84B58260FC
:100B800084BD85B5816085BDEEE9F0E08491E82FF4
:100B9000F0E0EE0FFF1FE957FF4F85919491E2EBD4
:100BA000F0E0849180938C011D8212CF109280001E
:100BB00010928100809181008860809381008091F3
:100BC0008100816080938100EEE9F0E08491E82F5C
:100BD000F0E0EE0FFF1FE957FF4F85919491E2EB94
:100BE000F0E0849180938B01F3CE1092B0001092CC
:100BF000B1008091B00082608093B0008091B1001C
:100C000081608093B100EEE9F0E08491E82FF0E09C
:100C1000EE0FFF1FE957FF4F8591949190938A0142
:100C200080938901E2EBF0E0849180938801D0CE3B
:100C3000FFEFCF16D104E104F10409F00CF4D7C0A2
:100C4000C301B201A50198010E949F0769017A01C1
:100C500081E0C81AD108E108F1089D8184E0911172
:100C60003ACF83E0EFEFCE16D104E104F10471F145
:100C70006CF162E17AE780E090E0A50194010E94C6
:100C80009F0769017A01B1E0CB1AD108E108F108A8
:100C900084E0EFEFCE16D104E104F104B9F0B0F036
:100CA000C980DA80EB80FC808AE0F594E794D794E1
:100CB000C7948A95D1F7F1E0CF1AD108E108F1087D
:100CC00085E004C081E0FD81F11134CF95B5987FB6
:100CD000892B85BD9801220F331FA8EEB3E00E9437
:100CE000BE0728EE33E040E050E00E947D07ED8132
:100CF000E13009F4B0C0E23009F4BFC0E1110EC028
:100D0000C7BC20939501309396014093970150936F
:100D1000980180916E00826080936E000E94E700CF
:100D20004B015C012CE4C22E24E0D22EE12CF12CEC
:100D30000E94E700681979098A099B09683E734097
:100D400081059105A8F3F1E0CF1AD108E108F10877
:100D500028EE820E23E0921EA11CB11CC114D10406
:100D6000E104F10429F78DE191E08215930509F082
:100D700020CE8091A1019091A201009759F120917C
:100D80009B0130919C012630314009F086C02091B2
:100D90009D0130919E01243C310509F07EC02091D7
:100DA0009F013091A0012630314009F076C0843C8B
:100DB000910509F072C083E491E00E94260210922E
:100DC0009A0110929901EBE9F1E088E0DF011D92B0
:100DD0008A95E9F780E090E0892B09F4BECD0E9466
:100DE0007601882309F4B9CD0E940000AFCD82E0DE
:100DF0006ACFB12CA12C60E072E18AE790E0A501F6
:100E000098010E949F0769017A0181E0C81AD10800
:100E1000E108F108C114D10491E0E906F10464F499
:100E200091E0BD81B13009F055CF80918100887F7C
:100E3000892B809381004ECFC301B201A501980197
:100E40000E949F0769017A01A1E0CA1AD108E1084E
:100E5000F10893E0E6CFD0928900C09288002093F9
:100E600091013093920140939301509394018091AA
:100E70006F00826080936F0051CFC092B3002093C7
:100E80008D0130938E0140938F015093900180919A
:100E9000700082608093700041CF86E691E08DCF34
:100EA000EEEAF1E01382128288EE93E0A0E0B0E077
:100EB00084839583A683B78387E091E091838083C1
:100EC00085EC90E09587848784EC90E0978786870F
:100ED00080EC90E0918B808B81EC90E0938B828B07
:100EE00082EC90E0958B848B86EC90E0978B868BE0
:100EF000118E128E138E148E0895A1E21A2EAA1B43
:100F0000BB1BFD010DC0AA1FBB1FEE1FFF1FA217B9
:100F1000B307E407F50720F0A21BB30BE40BF50BB6
:100F2000661F771F881F991F1A9469F7609570953F
:100F3000809590959B01AC01BD01CF010895052ED0
:100F400097FB1EF400940E94B60757FD07D00E943D
:100F50007D0707FC03D04EF40C94B60750954095DE
:100F6000309521953F4F4F4F5F4F08959095809555
:100F7000709561957F4F8F4F9F4F0895A29FB0014D
:100F8000B39FC001A39F700D811D1124911DB29FBD
:100F9000700D811D1124911D0895EE0FFF1F059006
:0A0FA000F491E02D0994F894FFCFBE
:100FAA0001FF0100000000AC010C013901F9016ADE
:100FBA000148015C010601C4000601C4000D0A00D3
:100FCA004C6566743A206869676820746F6E65209C
:100FDA007C7C2052696768743A206C6F7720746F42
:100FEA006E6500436F6E67726174756C6174696FC8
:100FFA006E732120596F7520676F7420697420728F
:10100A006967687421004F6F7073212057726F6E81
:10101A00672073657175656E63652E205472792039
:08102A00616761696E2100009D
:00000001FF
